{
  "_format": "hh-sol-artifact-1",
  "contractName": "NewApp",
  "sourceName": "contracts/NewApp.sol",
  "abi": [
    {
      "inputs": [],
      "stateMutability": "payable",
      "type": "constructor"
    },
    {
      "anonymous": false,
      "inputs": [
        {
          "indexed": true,
          "internalType": "address",
          "name": "from",
          "type": "address"
        },
        {
          "indexed": false,
          "internalType": "uint256",
          "name": "timestamp",
          "type": "uint256"
        },
        {
          "indexed": false,
          "internalType": "string",
          "name": "message",
          "type": "string"
        }
      ],
      "name": "NewGift",
      "type": "event"
    },
    {
      "inputs": [],
      "name": "getAllGifts",
      "outputs": [
        {
          "components": [
            {
              "internalType": "address",
              "name": "gifter",
              "type": "address"
            },
            {
              "internalType": "string",
              "name": "message",
              "type": "string"
            },
            {
              "internalType": "uint256",
              "name": "timestamp",
              "type": "uint256"
            }
          ],
          "internalType": "struct NewApp.Gift[]",
          "name": "",
          "type": "tuple[]"
        }
      ],
      "stateMutability": "view",
      "type": "function"
    },
    {
      "inputs": [],
      "name": "getTotalGifts",
      "outputs": [
        {
          "internalType": "uint256",
          "name": "",
          "type": "uint256"
        }
      ],
      "stateMutability": "view",
      "type": "function"
    },
    {
      "inputs": [
        {
          "internalType": "string",
          "name": "_message",
          "type": "string"
        }
      ],
      "name": "gift",
      "outputs": [],
      "stateMutability": "nonpayable",
      "type": "function"
    }
  ],
  "bytecode": "0x60c0604052601960809081527f57652068617665206265656e20636f6e7374727563746564210000000000000060a05261004390610048602090811b61038f17901c565b610106565b61008f8160405160240161005c91906100b3565b60408051601f198184030181529190526020810180516001600160e01b0390811663104c13eb60e21b1790915261009216565b50565b80516a636f6e736f6c652e6c6f67602083016000808483855afa5050505050565b6000602080835283518082850152825b818110156100df578581018301518582016040015282016100c3565b818111156100f05783604083870101525b50601f01601f1916929092016040019392505050565b610805806101156000396000f3fe608060405234801561001057600080fd5b50600436106100415760003560e01c806301a779a9146100465780631431f7f61461005b578063d64147bf14610079575b600080fd5b6100596100543660046104d8565b61008e565b005b610063610278565b6040516100709190610730565b60405180910390f35b61008161027e565b60405161007091906105c7565b60016000808282546100a0919061075a565b909155505060408051808201909152600c81526b25732068617320676966742160a01b60208201526100d290336103d5565b604080516060810182523381526020808201848152429383019390935260018054808201825560009190915282517fb10e2d527612073b26eecdfd717e6a320cf44b4afac2b0732d9fcbe2b7fa0cf6600390920291820180546001600160a01b0319166001600160a01b0390921691909117815593518051939493610180937fb10e2d527612073b26eecdfd717e6a320cf44b4afac2b0732d9fcbe2b7fa0cf790930192919091019061043f565b506040918201516002909101555133907f7b052c741b7a75b51d1735a75b0804062a4d48bfe569a3163759ffa0e3565c84906101bf9042908590610739565b60405180910390a2655af3107a4000478111156101f75760405162461bcd60e51b81526004016101ee906106db565b60405180910390fd5b6000336001600160a01b031682604051610210906105c4565b60006040518083038185875af1925050503d806000811461024d576040519150601f19603f3d011682016040523d82523d6000602084013e610252565b606091505b50509050806102735760405162461bcd60e51b81526004016101ee90610694565b505050565b60005490565b60606001805480602002602001604051908101604052809291908181526020016000905b8282101561038657600084815260209081902060408051606081019091526003850290910180546001600160a01b0316825260018101805492939192918401916102eb9061077e565b80601f01602080910402602001604051908101604052809291908181526020018280546103179061077e565b80156103645780601f1061033957610100808354040283529160200191610364565b820191906000526020600020905b81548152906001019060200180831161034757829003601f168201915b50505050508152602001600282015481525050815260200190600101906102a2565b50505050905090565b6103d2816040516024016103a39190610650565b60408051601f198184030181529190526020810180516001600160e01b031663104c13eb60e21b17905261041e565b50565b61041a82826040516024016103eb92919061066a565b60408051601f198184030181529190526020810180516001600160e01b031663319af33360e01b17905261041e565b5050565b80516a636f6e736f6c652e6c6f67602083016000808483855afa5050505050565b82805461044b9061077e565b90600052602060002090601f01602090048101928261046d57600085556104b3565b82601f1061048657805160ff19168380011785556104b3565b828001600101855582156104b3579182015b828111156104b3578251825591602001919060010190610498565b506104bf9291506104c3565b5090565b5b808211156104bf57600081556001016104c4565b600060208083850312156104ea578182fd5b823567ffffffffffffffff80821115610501578384fd5b818501915085601f830112610514578384fd5b813581811115610526576105266107b9565b604051601f8201601f1916810185018381118282101715610549576105496107b9565b604052818152838201850188101561055f578586fd5b818585018683013790810190930193909352509392505050565b60008151808452815b8181101561059e57602081850181015186830182015201610582565b818111156105af5782602083870101525b50601f01601f19169290920160200192915050565b90565b60208082528251828201819052600091906040908185019080840286018301878501865b8381101561064257888303603f19018552815180516001600160a01b031684528781015160608986018190529061062482870182610579565b928901519589019590955250948701949250908601906001016105eb565b509098975050505050505050565b6000602082526106636020830184610579565b9392505050565b60006040825261067d6040830185610579565b905060018060a01b03831660208301529392505050565b60208082526027908201527f4661696c656420746f207769746864726177206d6f6e65792066726f6d20636f604082015266373a3930b1ba1760c91b606082015260800190565b60208082526035908201527f547279696e6720746f207769746864726177206d6f7265206d6f6e657920746860408201527430b7103a3432bc9031b7b73a3930b1ba103430b99760591b606082015260800190565b90815260200190565b6000838252604060208301526107526040830184610579565b949350505050565b6000821982111561077957634e487b7160e01b81526011600452602481fd5b500190565b60028104600182168061079257607f821691505b602082108114156107b357634e487b7160e01b600052602260045260246000fd5b50919050565b634e487b7160e01b600052604160045260246000fdfea264697066735822122035be80078c4aec27e46c07936a9404a7f2da8089679b15abba383e846893ba4a64736f6c63430008000033",
  "linkReferences": {},
  "deployedLinkReferences": {}
}